{
  "contractName": "Election",
  "abi": [
    {
      "constant": true,
      "inputs": [],
      "name": "chack",
      "outputs": [
        {
          "name": "",
          "type": "bytes32"
        }
      ],
      "payable": false,
      "stateMutability": "view",
      "type": "function"
    },
    {
      "constant": true,
      "inputs": [],
      "name": "candidatesCounter",
      "outputs": [
        {
          "name": "",
          "type": "uint256"
        }
      ],
      "payable": false,
      "stateMutability": "view",
      "type": "function"
    },
    {
      "constant": true,
      "inputs": [
        {
          "name": "",
          "type": "uint256"
        }
      ],
      "name": "candidates",
      "outputs": [
        {
          "name": "id",
          "type": "uint256"
        },
        {
          "name": "name",
          "type": "string"
        },
        {
          "name": "votes",
          "type": "uint256"
        }
      ],
      "payable": false,
      "stateMutability": "view",
      "type": "function"
    },
    {
      "constant": true,
      "inputs": [],
      "name": "inputKey",
      "outputs": [
        {
          "name": "",
          "type": "string"
        }
      ],
      "payable": false,
      "stateMutability": "view",
      "type": "function"
    },
    {
      "constant": true,
      "inputs": [],
      "name": "check",
      "outputs": [
        {
          "name": "",
          "type": "bytes32"
        }
      ],
      "payable": false,
      "stateMutability": "view",
      "type": "function"
    },
    {
      "constant": true,
      "inputs": [
        {
          "name": "",
          "type": "address"
        }
      ],
      "name": "votedVoters",
      "outputs": [
        {
          "name": "",
          "type": "bool"
        }
      ],
      "payable": false,
      "stateMutability": "view",
      "type": "function"
    },
    {
      "constant": true,
      "inputs": [
        {
          "name": "",
          "type": "address"
        }
      ],
      "name": "registeredVoters",
      "outputs": [
        {
          "name": "",
          "type": "bool"
        }
      ],
      "payable": false,
      "stateMutability": "view",
      "type": "function"
    },
    {
      "constant": true,
      "inputs": [
        {
          "name": "",
          "type": "address"
        }
      ],
      "name": "votingKeys",
      "outputs": [
        {
          "name": "",
          "type": "bytes32"
        }
      ],
      "payable": false,
      "stateMutability": "view",
      "type": "function"
    },
    {
      "constant": true,
      "inputs": [],
      "name": "admin",
      "outputs": [
        {
          "name": "",
          "type": "address"
        }
      ],
      "payable": false,
      "stateMutability": "view",
      "type": "function"
    },
    {
      "inputs": [],
      "payable": false,
      "stateMutability": "nonpayable",
      "type": "constructor"
    },
    {
      "constant": false,
      "inputs": [
        {
          "name": "_candidateId",
          "type": "uint256"
        },
        {
          "name": "_key",
          "type": "string"
        }
      ],
      "name": "vote",
      "outputs": [],
      "payable": true,
      "stateMutability": "payable",
      "type": "function"
    },
    {
      "constant": true,
      "inputs": [],
      "name": "hasRegistered",
      "outputs": [
        {
          "name": "registered",
          "type": "bool"
        }
      ],
      "payable": false,
      "stateMutability": "view",
      "type": "function"
    },
    {
      "constant": true,
      "inputs": [],
      "name": "hasVoted",
      "outputs": [
        {
          "name": "voted",
          "type": "bool"
        }
      ],
      "payable": false,
      "stateMutability": "view",
      "type": "function"
    },
    {
      "constant": true,
      "inputs": [],
      "name": "isAdmin",
      "outputs": [
        {
          "name": "wasAdmin",
          "type": "bool"
        }
      ],
      "payable": false,
      "stateMutability": "view",
      "type": "function"
    },
    {
      "constant": false,
      "inputs": [
        {
          "name": "_key",
          "type": "bytes32"
        }
      ],
      "name": "register",
      "outputs": [],
      "payable": true,
      "stateMutability": "payable",
      "type": "function"
    }
  ],
  "bytecode": "0x60806040523480156200001157600080fd5b50620000586040518060400160405280600381526020017f5965730000000000000000000000000000000000000000000000000000000000815250620000e460201b60201c565b6200009e6040518060400160405280600281526020017f4e6f000000000000000000000000000000000000000000000000000000000000815250620000e460201b60201c565b336000806101000a81548173ffffffffffffffffffffffffffffffffffffffff021916908373ffffffffffffffffffffffffffffffffffffffff16021790555062000351565b620000f533620001e660201b60201c565b62000168576040517f08c379a00000000000000000000000000000000000000000000000000000000081526004018080602001828103825260128152602001807f53656e646572206e6f7420686f6e65737421000000000000000000000000000081525060200191505060405180910390fd5b600760008154809291906001019190505550604051806060016040528060075481526020018281526020016000815250600160006007548152602001908152602001600020600082015181600001556020820151816001019080519060200190620001d5929190620002a2565b506040820151816002015590505050565b60006001600560008473ffffffffffffffffffffffffffffffffffffffff1673ffffffffffffffffffffffffffffffffffffffff1681526020019081526020016000205411156200023b57600090506200029d565b600660008373ffffffffffffffffffffffffffffffffffffffff1673ffffffffffffffffffffffffffffffffffffffff16815260200190815260200160002060009054906101000a900460ff16156200029857600090506200029d565b600190505b919050565b828054600181600116156101000203166002900490600052602060002090601f016020900481019282601f10620002e557805160ff191683800117855562000316565b8280016001018555821562000316579182015b8281111562000315578251825591602001919060010190620002f8565b5b50905062000325919062000329565b5090565b6200034e91905b808211156200034a57600081600090555060010162000330565b5090565b90565b610f1380620003616000396000f3fe6080604052600436106100dd5760003560e01c8063919840ad1161007f578063b6db75a011610059578063b6db75a0146104aa578063cbebcbbc146104d9578063e1fa8e841461053e578063f851a4401461056c576100dd565b8063919840ad146103ad578063a3d45314146103d8578063a9ff6df114610441576100dd565b80633477ee2e116100bb5780633477ee2e146101fd57806364821338146102bf578063665396b8146102ee578063877a2a911461037e576100dd565b806324108475146100e25780632f9b26bf146101a757806333ec9316146101d2575b600080fd5b6101a5600480360360408110156100f857600080fd5b81019080803590602001909291908035906020019064010000000081111561011f57600080fd5b82018360208201111561013157600080fd5b8035906020019184600183028401116401000000008311171561015357600080fd5b91908080601f016020809104026020016040519081016040528093929190818152602001838380828437600081840152601f19601f8201169050808301925050505050505091929192905050506105c3565b005b3480156101b357600080fd5b506101bc610822565b6040518082815260200191505060405180910390f35b3480156101de57600080fd5b506101e7610828565b6040518082815260200191505060405180910390f35b34801561020957600080fd5b506102366004803603602081101561022057600080fd5b810190808035906020019092919050505061082e565b6040518084815260200180602001838152602001828103825284818151815260200191508051906020019080838360005b83811015610282578082015181840152602081019050610267565b50505050905090810190601f1680156102af5780820380516001836020036101000a031916815260200191505b5094505050505060405180910390f35b3480156102cb57600080fd5b506102d46108f0565b604051808215151515815260200191505060405180910390f35b3480156102fa57600080fd5b506103036109c6565b6040518080602001828103825283818151815260200191508051906020019080838360005b83811015610343578082015181840152602081019050610328565b50505050905090810190601f1680156103705780820380516001836020036101000a031916815260200191505b509250505060405180910390f35b34801561038a57600080fd5b50610393610a64565b604051808215151515815260200191505060405180910390f35b3480156103b957600080fd5b506103c2610b3a565b6040518082815260200191505060405180910390f35b3480156103e457600080fd5b50610427600480360360208110156103fb57600080fd5b81019080803573ffffffffffffffffffffffffffffffffffffffff169060200190929190505050610b40565b604051808215151515815260200191505060405180910390f35b34801561044d57600080fd5b506104906004803603602081101561046457600080fd5b81019080803573ffffffffffffffffffffffffffffffffffffffff169060200190929190505050610b60565b604051808215151515815260200191505060405180910390f35b3480156104b657600080fd5b506104bf610b80565b604051808215151515815260200191505060405180910390f35b3480156104e557600080fd5b50610528600480360360208110156104fc57600080fd5b81019080803573ffffffffffffffffffffffffffffffffffffffff169060200190929190505050610c52565b6040518082815260200191505060405180910390f35b61056a6004803603602081101561055457600080fd5b8101908080359060200190929190505050610c6a565b005b34801561057857600080fd5b50610581610e0a565b604051808273ffffffffffffffffffffffffffffffffffffffff1673ffffffffffffffffffffffffffffffffffffffff16815260200191505060405180910390f35b6105cc33610e2f565b61063e576040517f08c379a00000000000000000000000000000000000000000000000000000000081526004018080602001828103825260128152602001807f53656e646572206e6f7420686f6e65737421000000000000000000000000000081525060200191505060405180910390fd5b600260003373ffffffffffffffffffffffffffffffffffffffff1673ffffffffffffffffffffffffffffffffffffffff16815260200190815260200160002060009054906101000a900460ff161580156106e15750600360003373ffffffffffffffffffffffffffffffffffffffff1673ffffffffffffffffffffffffffffffffffffffff16815260200190815260200160002060009054906101000a900460ff165b1561081e57600460003373ffffffffffffffffffffffffffffffffffffffff1673ffffffffffffffffffffffffffffffffffffffff16815260200190815260200160002054816040516020018082805190602001908083835b6020831061075d578051825260208201915060208101905060208303925061073a565b6001836020036101000a03801982511681845116808217855250505050505090500191505060405160208183030381529060405280519060200120141561081d576001600260003373ffffffffffffffffffffffffffffffffffffffff1673ffffffffffffffffffffffffffffffffffffffff16815260200190815260200160002060006101000a81548160ff02191690831515021790555060016000838152602001908152602001600020600201600081548092919060010191905055505b5b5050565b60095481565b60075481565b6001602052806000526040600020600091509050806000015490806001018054600181600116156101000203166002900480601f0160208091040260200160405190810160405280929190818152602001828054600181600116156101000203166002900480156108e05780601f106108b5576101008083540402835291602001916108e0565b820191906000526020600020905b8154815290600101906020018083116108c357829003601f168201915b5050505050908060020154905083565b60006108fb33610e2f565b61096d576040517f08c379a00000000000000000000000000000000000000000000000000000000081526004018080602001828103825260128152602001807f53656e646572206e6f7420686f6e65737421000000000000000000000000000081525060200191505060405180910390fd5b60011515600260003373ffffffffffffffffffffffffffffffffffffffff1673ffffffffffffffffffffffffffffffffffffffff16815260200190815260200160002060009054906101000a900460ff16151514905090565b600a8054600181600116156101000203166002900480601f016020809104026020016040519081016040528092919081815260200182805460018160011615610100020316600290048015610a5c5780601f10610a3157610100808354040283529160200191610a5c565b820191906000526020600020905b815481529060010190602001808311610a3f57829003601f168201915b505050505081565b6000610a6f33610e2f565b610ae1576040517f08c379a00000000000000000000000000000000000000000000000000000000081526004018080602001828103825260128152602001807f53656e646572206e6f7420686f6e65737421000000000000000000000000000081525060200191505060405180910390fd5b60011515600360003373ffffffffffffffffffffffffffffffffffffffff1673ffffffffffffffffffffffffffffffffffffffff16815260200190815260200160002060009054906101000a900460ff16151514905090565b60085481565b60026020528060005260406000206000915054906101000a900460ff1681565b60036020528060005260406000206000915054906101000a900460ff1681565b6000610b8b33610e2f565b610bfd576040517f08c379a00000000000000000000000000000000000000000000000000000000081526004018080602001828103825260128152602001807f53656e646572206e6f7420686f6e65737421000000000000000000000000000081525060200191505060405180910390fd5b6000809054906101000a900473ffffffffffffffffffffffffffffffffffffffff1673ffffffffffffffffffffffffffffffffffffffff163373ffffffffffffffffffffffffffffffffffffffff1614905090565b60046020528060005260406000206000915090505481565b610c7333610e2f565b610ce5576040517f08c379a00000000000000000000000000000000000000000000000000000000081526004018080602001828103825260128152602001807f53656e646572206e6f7420686f6e65737421000000000000000000000000000081525060200191505060405180910390fd5b6001600560003373ffffffffffffffffffffffffffffffffffffffff1673ffffffffffffffffffffffffffffffffffffffff1681526020019081526020016000205401600560003373ffffffffffffffffffffffffffffffffffffffff1673ffffffffffffffffffffffffffffffffffffffff1681526020019081526020016000208190555080600460003373ffffffffffffffffffffffffffffffffffffffff1673ffffffffffffffffffffffffffffffffffffffff168152602001908152602001600020819055506001600360003373ffffffffffffffffffffffffffffffffffffffff1673ffffffffffffffffffffffffffffffffffffffff16815260200190815260200160002060006101000a81548160ff02191690831515021790555050565b6000809054906101000a900473ffffffffffffffffffffffffffffffffffffffff1681565b60006001600560008473ffffffffffffffffffffffffffffffffffffffff1673ffffffffffffffffffffffffffffffffffffffff168152602001908152602001600020541115610e825760009050610ee2565b600660008373ffffffffffffffffffffffffffffffffffffffff1673ffffffffffffffffffffffffffffffffffffffff16815260200190815260200160002060009054906101000a900460ff1615610edd5760009050610ee2565b600190505b91905056fea165627a7a72305820ef8cf916943c7f3e59d2cbae579167e823b06e6eac4cd81557f16742e3e83a780029",
  "source": "pragma solidity ^0.5.8;\n\ncontract Election {\n    // The admin \n    address public admin;\n    \n    // Store candidate\n    struct Candidate {\n        uint id;\n        string name;\n        uint votes;\n    }\n    \n    //Fetch the candidates\n    mapping(uint => Candidate) public candidates;\n    // Store accounts that have voted\n    mapping(address => bool) public votedVoters;\n    // Store accounts that have registered\n    mapping(address => bool) public registeredVoters;\n    // Registered voters keys\n     mapping(address => bytes32) public votingKeys;\n     // Key attempts\n     mapping(address => uint) private keyAttempVoters;\n    // Read candidate\n    mapping(address => bool) private strikes;\n    // Read candidate\n    uint public candidatesCounter;\n    \n    bytes32 public check;\n    bytes32 public chack;\n    string public inputKey;\n\n    // Constructor\n    constructor () public {\n        addCadidate(\"Yes\");\n        addCadidate(\"No\");\n        admin = msg.sender;\n    }\n\n    modifier onlyAdmin {\n        require(\n            msg.sender == admin,\n            \"Sender not authorized.\"\n        );\n        _;\n    }\n\n    modifier honestUser {\n        require(\n            checkForStrikes(msg.sender),\n            \"Sender not honest!\"\n        );\n        _;\n    }\n\n    function addCadidate(string memory _name) honestUser private {\n        candidatesCounter++;\n        candidates[candidatesCounter] = Candidate(candidatesCounter,_name,0);\n    }\n\n    function vote(uint _candidateId, string memory _key) public payable honestUser {\n        if (!votedVoters[msg.sender] && registeredVoters[msg.sender]) {\n            if(keccak256(abi.encodePacked(_key))==votingKeys[msg.sender]) {\n                // Record voter has voted\n                votedVoters[msg.sender] = true;\n                // Update candidate vote count\n                candidates[_candidateId].votes++;\n            }\n        }\n    }\n\n    function hasRegistered() honestUser public view returns (bool registered) {\n        return registeredVoters[msg.sender]==true;\n    }\n\n    function hasVoted() honestUser public view returns (bool voted) {\n        return votedVoters[msg.sender]==true;\n    }\n\n    function isAdmin() honestUser public view returns (bool wasAdmin) {\n        return msg.sender == admin;\n    }\n\n    function register(bytes32 _key) public payable honestUser {\n        keyAttempVoters[msg.sender] = keyAttempVoters[msg.sender]+1;\n        votingKeys[msg.sender] = _key;\n        registeredVoters[msg.sender] = true;\n    }\n\n    function checkForStrikes(address _sender) private view returns (bool ok) {\n        if(keyAttempVoters[_sender]>1) {\n            return false;\n        }\n        if(strikes[_sender]) {\n            return false;\n        }\n        return true;\n    }\n\n}\n  ",
  "sourcePath": "/Users/ahmedmuzher/bachelorproef/poc/EthereumVote/backend/contracts/Election.sol",
  "compiler": {
    "name": "solc",
    "version": "0.5.8+commit.23d335f2.Emscripten.clang"
  },
  "schemaVersion": "3.0.10",
  "updatedAt": "2019-06-28T10:10:52.709Z",
  "devdoc": {
    "methods": {}
  },
  "userdoc": {
    "methods": {}
  }
}