{
  "contractName": "Election",
  "abi": [
    {
      "constant": true,
      "inputs": [],
      "name": "candidatesCounter",
      "outputs": [
        {
          "name": "",
          "type": "uint256"
        }
      ],
      "payable": false,
      "stateMutability": "view",
      "type": "function"
    },
    {
      "constant": true,
      "inputs": [
        {
          "name": "",
          "type": "uint256"
        }
      ],
      "name": "candidates",
      "outputs": [
        {
          "name": "id",
          "type": "uint256"
        },
        {
          "name": "name",
          "type": "string"
        },
        {
          "name": "votes",
          "type": "uint256"
        }
      ],
      "payable": false,
      "stateMutability": "view",
      "type": "function"
    },
    {
      "constant": true,
      "inputs": [],
      "name": "check",
      "outputs": [
        {
          "name": "",
          "type": "bytes32"
        }
      ],
      "payable": false,
      "stateMutability": "view",
      "type": "function"
    },
    {
      "constant": true,
      "inputs": [
        {
          "name": "",
          "type": "address"
        }
      ],
      "name": "votedVoters",
      "outputs": [
        {
          "name": "",
          "type": "bool"
        }
      ],
      "payable": false,
      "stateMutability": "view",
      "type": "function"
    },
    {
      "constant": true,
      "inputs": [
        {
          "name": "",
          "type": "address"
        }
      ],
      "name": "registeredVoters",
      "outputs": [
        {
          "name": "",
          "type": "bool"
        }
      ],
      "payable": false,
      "stateMutability": "view",
      "type": "function"
    },
    {
      "constant": true,
      "inputs": [
        {
          "name": "",
          "type": "address"
        }
      ],
      "name": "votingKeys",
      "outputs": [
        {
          "name": "",
          "type": "bytes32"
        }
      ],
      "payable": false,
      "stateMutability": "view",
      "type": "function"
    },
    {
      "constant": true,
      "inputs": [],
      "name": "input",
      "outputs": [
        {
          "name": "",
          "type": "string"
        }
      ],
      "payable": false,
      "stateMutability": "view",
      "type": "function"
    },
    {
      "constant": true,
      "inputs": [],
      "name": "admin",
      "outputs": [
        {
          "name": "",
          "type": "address"
        }
      ],
      "payable": false,
      "stateMutability": "view",
      "type": "function"
    },
    {
      "inputs": [],
      "payable": false,
      "stateMutability": "nonpayable",
      "type": "constructor"
    },
    {
      "constant": false,
      "inputs": [
        {
          "name": "_candidateId",
          "type": "uint256"
        },
        {
          "name": "_key",
          "type": "string"
        }
      ],
      "name": "vote",
      "outputs": [],
      "payable": true,
      "stateMutability": "payable",
      "type": "function"
    },
    {
      "constant": true,
      "inputs": [],
      "name": "hasRegistered",
      "outputs": [
        {
          "name": "registered",
          "type": "bool"
        }
      ],
      "payable": false,
      "stateMutability": "view",
      "type": "function"
    },
    {
      "constant": true,
      "inputs": [],
      "name": "hasVoted",
      "outputs": [
        {
          "name": "voted",
          "type": "bool"
        }
      ],
      "payable": false,
      "stateMutability": "view",
      "type": "function"
    },
    {
      "constant": true,
      "inputs": [],
      "name": "isAdmin",
      "outputs": [
        {
          "name": "wasAdmin",
          "type": "bool"
        }
      ],
      "payable": false,
      "stateMutability": "view",
      "type": "function"
    },
    {
      "constant": false,
      "inputs": [
        {
          "name": "_key",
          "type": "bytes32"
        }
      ],
      "name": "register",
      "outputs": [],
      "payable": true,
      "stateMutability": "payable",
      "type": "function"
    }
  ],
  "bytecode": "0x60806040523480156200001157600080fd5b50620000586040518060400160405280600381526020017f5965730000000000000000000000000000000000000000000000000000000000815250620000e460201b60201c565b6200009e6040518060400160405280600281526020017f4e6f000000000000000000000000000000000000000000000000000000000000815250620000e460201b60201c565b336000806101000a81548173ffffffffffffffffffffffffffffffffffffffff021916908373ffffffffffffffffffffffffffffffffffffffff16021790555062000351565b620000f533620001e660201b60201c565b62000168576040517f08c379a00000000000000000000000000000000000000000000000000000000081526004018080602001828103825260128152602001807f53656e646572206e6f7420686f6e65737421000000000000000000000000000081525060200191505060405180910390fd5b600760008154809291906001019190505550604051806060016040528060075481526020018281526020016000815250600160006007548152602001908152602001600020600082015181600001556020820151816001019080519060200190620001d5929190620002a2565b506040820151816002015590505050565b60006001600560008473ffffffffffffffffffffffffffffffffffffffff1673ffffffffffffffffffffffffffffffffffffffff1681526020019081526020016000205411156200023b57600090506200029d565b600660008373ffffffffffffffffffffffffffffffffffffffff1673ffffffffffffffffffffffffffffffffffffffff16815260200190815260200160002060009054906101000a900460ff16156200029857600090506200029d565b600190505b919050565b828054600181600116156101000203166002900490600052602060002090601f016020900481019282601f10620002e557805160ff191683800117855562000316565b8280016001018555821562000316579182015b8281111562000315578251825591602001919060010190620002f8565b5b50905062000325919062000329565b5090565b6200034e91905b808211156200034a57600081600090555060010162000330565b5090565b90565b610ec780620003616000396000f3fe6080604052600436106100c25760003560e01c8063a3d453141161007f578063cbebcbbc11610059578063cbebcbbc14610403578063e1fa8e8414610468578063eaed3f4f14610496578063f851a44014610526576100c2565b8063a3d4531414610302578063a9ff6df11461036b578063b6db75a0146103d4576100c2565b806324108475146100c757806333ec93161461018c5780633477ee2e146101b75780636482133814610279578063877a2a91146102a8578063919840ad146102d7575b600080fd5b61018a600480360360408110156100dd57600080fd5b81019080803590602001909291908035906020019064010000000081111561010457600080fd5b82018360208201111561011657600080fd5b8035906020019184600183028401116401000000008311171561013857600080fd5b91908080601f016020809104026020016040519081016040528093929190818152602001838380828437600081840152601f19601f82011690508083019250505050505050919291929050505061057d565b005b34801561019857600080fd5b506101a16107dc565b6040518082815260200191505060405180910390f35b3480156101c357600080fd5b506101f0600480360360208110156101da57600080fd5b81019080803590602001909291905050506107e2565b6040518084815260200180602001838152602001828103825284818151815260200191508051906020019080838360005b8381101561023c578082015181840152602081019050610221565b50505050905090810190601f1680156102695780820380516001836020036101000a031916815260200191505b5094505050505060405180910390f35b34801561028557600080fd5b5061028e6108a4565b604051808215151515815260200191505060405180910390f35b3480156102b457600080fd5b506102bd61097a565b604051808215151515815260200191505060405180910390f35b3480156102e357600080fd5b506102ec610a50565b6040518082815260200191505060405180910390f35b34801561030e57600080fd5b506103516004803603602081101561032557600080fd5b81019080803573ffffffffffffffffffffffffffffffffffffffff169060200190929190505050610a56565b604051808215151515815260200191505060405180910390f35b34801561037757600080fd5b506103ba6004803603602081101561038e57600080fd5b81019080803573ffffffffffffffffffffffffffffffffffffffff169060200190929190505050610a76565b604051808215151515815260200191505060405180910390f35b3480156103e057600080fd5b506103e9610a96565b604051808215151515815260200191505060405180910390f35b34801561040f57600080fd5b506104526004803603602081101561042657600080fd5b81019080803573ffffffffffffffffffffffffffffffffffffffff169060200190929190505050610b68565b6040518082815260200191505060405180910390f35b6104946004803603602081101561047e57600080fd5b8101908080359060200190929190505050610b80565b005b3480156104a257600080fd5b506104ab610d20565b6040518080602001828103825283818151815260200191508051906020019080838360005b838110156104eb5780820151818401526020810190506104d0565b50505050905090810190601f1680156105185780820380516001836020036101000a031916815260200191505b509250505060405180910390f35b34801561053257600080fd5b5061053b610dbe565b604051808273ffffffffffffffffffffffffffffffffffffffff1673ffffffffffffffffffffffffffffffffffffffff16815260200191505060405180910390f35b61058633610de3565b6105f8576040517f08c379a00000000000000000000000000000000000000000000000000000000081526004018080602001828103825260128152602001807f53656e646572206e6f7420686f6e65737421000000000000000000000000000081525060200191505060405180910390fd5b600260003373ffffffffffffffffffffffffffffffffffffffff1673ffffffffffffffffffffffffffffffffffffffff16815260200190815260200160002060009054906101000a900460ff1615801561069b5750600360003373ffffffffffffffffffffffffffffffffffffffff1673ffffffffffffffffffffffffffffffffffffffff16815260200190815260200160002060009054906101000a900460ff165b156107d857600460003373ffffffffffffffffffffffffffffffffffffffff1673ffffffffffffffffffffffffffffffffffffffff16815260200190815260200160002054816040516020018082805190602001908083835b6020831061071757805182526020820191506020810190506020830392506106f4565b6001836020036101000a0380198251168184511680821785525050505050509050019150506040516020818303038152906040528051906020012014156107d7576001600260003373ffffffffffffffffffffffffffffffffffffffff1673ffffffffffffffffffffffffffffffffffffffff16815260200190815260200160002060006101000a81548160ff02191690831515021790555060016000838152602001908152602001600020600201600081548092919060010191905055505b5b5050565b60075481565b6001602052806000526040600020600091509050806000015490806001018054600181600116156101000203166002900480601f0160208091040260200160405190810160405280929190818152602001828054600181600116156101000203166002900480156108945780601f1061086957610100808354040283529160200191610894565b820191906000526020600020905b81548152906001019060200180831161087757829003601f168201915b5050505050908060020154905083565b60006108af33610de3565b610921576040517f08c379a00000000000000000000000000000000000000000000000000000000081526004018080602001828103825260128152602001807f53656e646572206e6f7420686f6e65737421000000000000000000000000000081525060200191505060405180910390fd5b60011515600260003373ffffffffffffffffffffffffffffffffffffffff1673ffffffffffffffffffffffffffffffffffffffff16815260200190815260200160002060009054906101000a900460ff16151514905090565b600061098533610de3565b6109f7576040517f08c379a00000000000000000000000000000000000000000000000000000000081526004018080602001828103825260128152602001807f53656e646572206e6f7420686f6e65737421000000000000000000000000000081525060200191505060405180910390fd5b60011515600360003373ffffffffffffffffffffffffffffffffffffffff1673ffffffffffffffffffffffffffffffffffffffff16815260200190815260200160002060009054906101000a900460ff16151514905090565b60085481565b60026020528060005260406000206000915054906101000a900460ff1681565b60036020528060005260406000206000915054906101000a900460ff1681565b6000610aa133610de3565b610b13576040517f08c379a00000000000000000000000000000000000000000000000000000000081526004018080602001828103825260128152602001807f53656e646572206e6f7420686f6e65737421000000000000000000000000000081525060200191505060405180910390fd5b6000809054906101000a900473ffffffffffffffffffffffffffffffffffffffff1673ffffffffffffffffffffffffffffffffffffffff163373ffffffffffffffffffffffffffffffffffffffff1614905090565b60046020528060005260406000206000915090505481565b610b8933610de3565b610bfb576040517f08c379a00000000000000000000000000000000000000000000000000000000081526004018080602001828103825260128152602001807f53656e646572206e6f7420686f6e65737421000000000000000000000000000081525060200191505060405180910390fd5b6001600560003373ffffffffffffffffffffffffffffffffffffffff1673ffffffffffffffffffffffffffffffffffffffff1681526020019081526020016000205401600560003373ffffffffffffffffffffffffffffffffffffffff1673ffffffffffffffffffffffffffffffffffffffff1681526020019081526020016000208190555080600460003373ffffffffffffffffffffffffffffffffffffffff1673ffffffffffffffffffffffffffffffffffffffff168152602001908152602001600020819055506001600360003373ffffffffffffffffffffffffffffffffffffffff1673ffffffffffffffffffffffffffffffffffffffff16815260200190815260200160002060006101000a81548160ff02191690831515021790555050565b60098054600181600116156101000203166002900480601f016020809104026020016040519081016040528092919081815260200182805460018160011615610100020316600290048015610db65780601f10610d8b57610100808354040283529160200191610db6565b820191906000526020600020905b815481529060010190602001808311610d9957829003601f168201915b505050505081565b6000809054906101000a900473ffffffffffffffffffffffffffffffffffffffff1681565b60006001600560008473ffffffffffffffffffffffffffffffffffffffff1673ffffffffffffffffffffffffffffffffffffffff168152602001908152602001600020541115610e365760009050610e96565b600660008373ffffffffffffffffffffffffffffffffffffffff1673ffffffffffffffffffffffffffffffffffffffff16815260200190815260200160002060009054906101000a900460ff1615610e915760009050610e96565b600190505b91905056fea165627a7a72305820f5a816b8f5f4cd0b2600e5d48d2307fdd1efc0ae7424317bd2cd70ba3e6526220029",
  "source": "pragma solidity ^0.5.8;\n\ncontract Election {\n    // The admin \n    address public admin;\n    \n    // Store candidate\n    struct Candidate {\n        uint id;\n        string name;\n        uint votes;\n    }\n    \n    //Fetch the candidates\n    mapping(uint => Candidate) public candidates;\n    // Store accounts that have voted\n    mapping(address => bool) public votedVoters;\n    // Store accounts that have registered\n    mapping(address => bool) public registeredVoters;\n    // Registered voters keys\n     mapping(address => bytes32) public votingKeys;\n     // Key attempts\n     mapping(address => uint) private keyAttempVoters;\n    // Read candidate\n    mapping(address => bool) private strikes;\n    // Read candidate\n    uint public candidatesCounter;\n\n    bytes32 public check;\n    string public input;\n\n    // Constructor\n    constructor () public {\n        addCadidate(\"Yes\");\n        addCadidate(\"No\");\n        admin = msg.sender;\n    }\n\n    modifier onlyAdmin {\n        require(\n            msg.sender == admin,\n            \"Sender not authorized.\"\n        );\n        _;\n    }\n\n    modifier honestUser {\n        require(\n            checkForStrikes(msg.sender),\n            \"Sender not honest!\"\n        );\n        _;\n    }\n\n    function addCadidate(string memory _name) honestUser private {\n        candidatesCounter++;\n        candidates[candidatesCounter] = Candidate(candidatesCounter,_name,0);\n    }\n\n    function vote(uint _candidateId, string memory _key) public payable honestUser {\n        if (!votedVoters[msg.sender] && registeredVoters[msg.sender]) {\n            if(keccak256(abi.encodePacked(_key))==votingKeys[msg.sender]) {\n                // Record voter has voted\n                votedVoters[msg.sender] = true;\n                // Update candidate vote count\n                candidates[_candidateId].votes++;\n            }\n        }\n    }\n\n    function hasRegistered() honestUser public view returns (bool registered) {\n        return registeredVoters[msg.sender]==true;\n    }\n\n    function hasVoted() honestUser public view returns (bool voted) {\n        return votedVoters[msg.sender]==true;\n    }\n\n    function isAdmin() honestUser public view returns (bool wasAdmin) {\n        return msg.sender == admin;\n    }\n\n    function register(bytes32 _key) public payable honestUser {\n        keyAttempVoters[msg.sender] = keyAttempVoters[msg.sender]+1;\n        votingKeys[msg.sender] = _key;\n        registeredVoters[msg.sender] = true;\n    }\n\n    function checkForStrikes(address _sender) private view returns (bool ok) {\n        if(keyAttempVoters[_sender]>1) {\n            return false;\n        }\n        if(strikes[_sender]) {\n            return false;\n        }\n        return true;\n    }\n\n}\n  ",
  "sourcePath": "/Users/ahmedmuzher/bachelorproef/poc/EthereumVote/backend/contracts/Election.sol",
  "compiler": {
    "name": "solc",
    "version": "0.5.8+commit.23d335f2.Emscripten.clang"
  },
  "schemaVersion": "3.0.10",
  "updatedAt": "2019-07-05T16:41:56.590Z",
  "devdoc": {
    "methods": {}
  },
  "userdoc": {
    "methods": {}
  }
}